:020000040800F2
:10000000582D0020310100089D0200089D020008C3
:100010009D0200089D0200089D0200089D02000844
:100020009D0200089D0200089D0200089D14000822
:100030009D0200089D02000879150008B915000806
:100040009D0200089D0200089D0200089D02000814
:100050009D0200089D0200089D0200089D02000804
:100060009D0200089D0200089D0200089D020008F4
:100070009D0200089D0200089D0200089D020008E4
:100080009D0200089D0200089D0200089D020008D4
:100090009D0200089D0200089D0200089D020008C4
:1000A0009D0200089D0200089D0200089D020008B4
:1000B0009D0200089D0200089D0200089D020008A4
:1000C0009D0200089D0200089D0200089D02000894
:1000D0009D0200089D0200089D0200089D02000884
:1000E0009D0200089D0200089D0200089D02000874
:1000F0009D0200089D0200089D0200089D02000864
:100100009D0200089D0200089D0200089D02000853
:100110009D0200089D0200089D0200089D02000843
:100120009D0200089D0200089D0200089D02000833
:10013000104880F30988022080F31488BFF36F8F82
:100140000D4880470D490E4A0E4B9A423EBF51F86A
:10015000040B42F8040BF8E700200B490B4A9142CC
:100160003CBF41F8040BFAE709488047094880473B
:10017000FEE770475831002073010008F41A0008A8
:10018000000000200C000020100000205429002056
:10019000730100089901000880B584B004AF1E4BBC
:1001A0004FF000629A601D4B1D229A6102220521C8
:1001B0001B4800F045F802220021194800F040F8E1
:1001C0000421032000F0B7FE0246164B1A600023FC
:1001D0000393002302930023019301230093002340
:1001E0004FF480721049114800F060F80023039327
:1001F00000230293002301930123009300234FF473
:10020000807209490A4800F051F800F041F90023D2
:100210001846BD4680BD00BF00ED00E00010024062
:100220000008014050290020881A00080118000821
:10023000C917000880B483B000AF78603960FEE76A
:1002400080B487B000AFF860B9607A60FB687B610A
:10025000BB68072B05D97B6904337B61BB68083B0E
:10026000BB607B691B683B61BB689B000F2202FA85
:1002700003F3DB431A463B6913403B61BB689B00B9
:100280007A6802FA03F33A6913433B617B693A697E
:100290001A6000BF1C37BD4680BC7047684620F01E
:1002A00007018D4681B400AFFEE7000080B58AB03B
:1002B00002AFF860B9603B601346FB80FB88396B86
:1002C000184600F0A7FCB861BB69002B74D0BB696D
:1002D0001A6BFB8803F18043013B9B0013447B6155
:1002E0007B6923F007037B61FB8800937B6BBA6A11
:1002F000B968B86900F0D2FB3A68F968786901F02A
:10030000A5F80246BB691A60FB6A002B02D0FB6AA3
:10031000BA691A6001F008F9334B1B680133324A9D
:100320001360324B1B68002B09D1304ABB69136044
:100330002D4B1B68012B0FD100F0EAFB0CE02C4B7E
:100340001B68002B08D1294B1B68DA6ABB6A9A42EA
:1003500002D8264ABB691360BB69DA6A254B1B6861
:100360009A4203D9BB69DB6A224A1360224B1A689E
:10037000BB695A64204B1B6801331F4A1360BB6979
:10038000DA6A1E4B1B689A4203D9BB69DB6A1B4AB7
:100390001360BB69DA6A13469B0013449B00184A3A
:1003A0001A44BB6904331946104600F03EFD012390
:1003B000FB6101F0CBF802E04FF0FF33FB61FB691A
:1003C000012B0BD10A4B1B68002B07D0074B1B6876
:1003D000DA6ABB6A9A4201D201F09AF8FB691846C0
:1003E0002037BD4680BD00BFFC000020100000206B
:1003F0000C01002004010020200100200801002041
:100400001400002080B584B000AF78600023FB604A
:100410007B68002B2BD000F06DF8194B1A687B68B5
:100420001344BB60174B1B680433184600F05CFD97
:10043000144B1B68BA685A60114B1B68BA689A4221
:1004400009D2114B1A680F4B1B680433194610462A
:1004500000F012FD08E00D4B1A680A4B1B680433CC
:100460001946104600F008FD00F052F8F860FB68ED
:10047000002B01D101F04CF800BF1037BD4680BD04
:100480000001002010000020B8000020B40000206F
:1004900080B586B004AF00230393002302930023AA
:1004A000019300230093002380220D490D48FFF79C
:1004B000FDFE78607B68012B0ED14FF0BF0080F30A
:1004C0001188094B01221A60084B00221A60084B60
:1004D00000221A6001F000F800BF0837BD4680BD59
:1004E000901A00087D0A00080C010020000100207D
:1004F0004C29002080B400AF044B1B680133034A31
:10050000136000BFBD4680BC704700BF10010020D3
:1005100090B583B000AF00237B6001F005F8344B49
:100520001B68013B324A1360314B1B68002B57D1CB
:10053000304B1B68002B53D000233B6024E004F1B8
:100540001803184600F0D0FC231D184600F0CCFC20
:10055000E26A294B1B689A4202D9E36A264A136071
:10056000E26A13469B0013449B00244A1344221D55
:100570001146184600F059FCE26A214B1B68DB6A01
:100580009A4201D301233B601E4B1B68002B03D012
:100590001C4BDB68DB6800E000231C46002CCED13E
:1005A000194B1B68002B0DD006E000F031F8164BFC
:1005B0001B68013B144A1360134B1B68002BF4D1DA
:1005C00001233B603B68012B03D0104B1B68012BC0
:1005D00006D101237B600D4B00221A6000F098FFCA
:1005E00000F0B4FF7B6818460C37BD4690BD00BFD5
:1005F00010010020FC000020080100201400002051
:1006000010000020BC000020140100201801002070
:1006100090B583B000AF2E4B1B68002B4CD12D4BF7
:100620001B6801332B4A13602A4B1B68002B34D103
:10063000294B1B687B60294B1B68274A1360274A9C
:100640007B681360264B1B680133254A136024E046
:100650006268204B1B689A4234D8231D184600F06C
:1006600043FCA36A002B04D004F11803184600F0E1
:100670003BFCE26A1B4B1B689A4202D9E36A194AA7
:100680001360E26A13469B0013449B00164A13440E
:10069000221D1146184600F0C8FB0F4B1B681B6853
:1006A000002B04D00C4B1B68DB68DB6800E00023E8
:1006B0001C46002CCCD106E00C4B1B6801330B4AC6
:1006C000136000E000BF00BF0C37BD4690BD00BF07
:1006D0001001002000010020B4000020B80000201C
:1006E0001C0100200801002014000020140100203B
:1006F00080B582B000AF4F4B1B68002B03D04E4B30
:1007000001221A6092E04D4B1B687B604C4B1B68CA
:10071000D96C4C4A12687868821A0A44DA64494AE9
:100720007B681360464B1B681A68454B1B681B6B44
:100730009A4208D8424B1A68414B1B683433194619
:100740001046FFF777FD3E4B1B681B6B14223E499A
:10075000184601F073F80346002B0ED0384B1A6888
:10076000374B1B68343319461046FFF763FD04E02E
:10077000364B1B68013B354A1360344B1A683449C9
:1007800013469B0013449B000B441B68002BEFD0C7
:100790002E4B1A6813469B0013449B002C4A1344AB
:1007A0003B603B685B685A683B685A603B685A68C4
:1007B0003B6808339A4204D13B685B685A683B68DF
:1007C0005A603B685B68DB681D4A1360214B1B68FD
:1007D000002B2BD01A4B1B685A6C1F4B1B689A427C
:1007E00024D01E4B1B6803F108021D4B1B689A4264
:1007F00019D2134B1B685B6C174A1360174B1B68AD
:10080000184A12681A60154B1B680433134A1360A8
:10081000124B1B68104A12681A60104B1B68043395
:100820000E4A136002E00B4B00221A600837BD46E7
:1008300080BD00BF10010020180100204C290020BD
:100840001000002024010020E01A00080801002008
:1008500014000020300100200000002028010020AA
:100860002C0100200001002080B584B000AF78602A
:1008700039601F4B1B6818331946786800F0FCFA82
:100880001B4B1B680433184600F02EFB3B68B3F18A
:10089000FF3F07D1164B1B6804331946154800F07B
:1008A000C4FA20E0144B1A683B681344FB60104BF9
:1008B0001B68FA685A60104B1B68FA689A4209D2A2
:1008C0000E4B1A680A4B1B6804331946104600F099
:1008D000D3FA08E00A4B1A68054B1B680433194623
:1008E000104600F0C9FA00BF1037BD4680BD00BFFA
:1008F00010000020E800002000010020B8000020C7
:10090000B400002080B584B000AF78607B681B68BD
:10091000002B03D07B68DB68DB6800E00023BB6052
:10092000BB681833184600F0DFFA1C4B1B68002B1D
:100930001DD1BB680433184600F0D6FABB68DA6AEA
:10094000174B1B689A4203D9BB68DB6A144A1360D1
:10095000BB68DA6A13469B0013449B00114A1A4491
:10096000BB6804331946104600F05FFA05E0BB6827
:10097000183319460C4800F058FABB68DA6A0B4B7A
:100980001B68DB6A9A4202D30123FB6001E000236B
:10099000FB60FB6818461037BD4680BD1001002083
:1009A0000801002014000020BC00002010000020DE
:1009B00080B483B000AF7860064B1A687B681A6019
:1009C000054B1A687B685A6000BF0C37BD4680BC77
:1009D000704700BF1C0100200001002080B584B0DA
:1009E00000AF7860396000F09FFD3B681B68B3F191
:1009F000FF3F02D10023FB6029E07B681A68174B98
:100A00001B689A4208D07B685A68154B1B689A424B
:100A100002D80123FB601AE0114B1A687B685B68FF
:100A2000D21A3B681B689A420FD20D4B1A687B683A
:100A30005B68D31A3A681268D21A3B681A60786801
:100A4000FFF7B6FF0023FB6001E00123FB6000F02D
:100A50007DFDFB6818461037BD4680BD1C01002097
:100A60000001002080B400AF034B01221A6000BFD8
:100A7000BD4680BC704700BF1801002080B582B021
:100A800000AF786000F084F8034B1B68012BF9D9A4
:100A900000F03EFDF6E700BF1400002080B584B0F2
:100AA00000AFF860B9607A603B60FB6834331022B5
:100AB000B968184600F0B6FFFB68002283F84320AF
:100AC0007B68052B01D905237B60FB687A68DA62B5
:100AD000FB687A689A64FB680433184600F099F959
:100AE000FB681833184600F094F9FB68FA681A613D
:100AF0007B68C3F10602FB689A61FB68FA685A6278
:100B0000FB680022DA6400BF1037BD4680BD0000DC
:100B100080B582B000AF00237B600CE07A6813469A
:100B20009B0013449B00124A1344184600F052F9EC
:100B30007B6801337B607B68052BEFD90D4800F0A3
:100B400049F90D4800F046F90C4800F043F90C480B
:100B500000F040F90B4800F03DF90B4B054A1A60D4
:100B60000A4B054A1A6000BF0837BD4680BD00BF6A
:100B7000140000208C000020A0000020BC000020F9
:100B8000D0000020E8000020B4000020B8000020C1
:100B900080B582B000AF1B4B1B68002B2ED0FFF737
:100BA000A9FC194B1B68002B0CBF01230023DBB2EF
:100BB0007B60FFF7ADFC7B68002B1FD100F0B4FC1D
:100BC000114B1B68002B03D0104B5B68DB6800E007
:100BD00000233B603B680433184600F085F90C4B5A
:100BE0001B68013B0A4A1360064B1B68013B054A20
:100BF000136000F0ABFC386800F03DF800BF083728
:100C0000BD4680BDE4000020D0000020D8000020B8
:100C1000FC00002080B584B000AF03463960FB8043
:100C2000502000F0F5FCF860FB68002B1ED03B68FC
:100C3000002B06D1FB889B00184600F0E9FC034618
:100C400000E03B68FA681363FB681B6B002B05D15F
:100C5000F86800F07FFD0023FB6007E0FB68186B7D
:100C6000FB889B001A46A52100F08EFEFB68184603
:100C70001037BD4680BD80B582B000AF78607B681C
:100C80001B6B184600F066FD786800F063FD00BF3E
:100C90000837BD4680BD000080B483B000AF044B70
:100CA0001B687B607B6818460C37BD4680BC70476C
:100CB0001000002080B584B000AF78607B68FB60D6
:100CC000FB68DA6A214B1B68DB6A9A423AD21F4BF7
:100CD0001B68DB6AC3F10602FB689A61FB6859690D
:100CE000FB68DA6A13469B0013449B00184A1344BE
:100CF000994222D1FB680433184600F0F5F8134BF3
:100D00001B68DA6AFB68DA62FB68DA6A114B1B68F7
:100D10009A4203D9FB68DB6A0E4A1360FB68DA6A01
:100D200013469B0013449B00094A1A44FB68043392
:100D30001946104600F079F804E0044B1B68DA6AA3
:100D4000FB68DA6200BF1037BD4680BD100000208E
:100D5000140000200801002080B584B000AF786046
:100D60007B68FB607B68002B2CD0FB68DA6AFB6831
:100D70009B6C9A4226D0FB680433184600F0B4F806
:100D8000FB689A6CFB68DA62FB68DB6AC3F10602F7
:100D9000FB689A61FB68DA6A0C4B1B689A4203D9BC
:100DA000FB68DB6A094A1360FB68DA6A13469B003A
:100DB00013449B00064A1A44FB6804331946104644
:100DC00000F033F800BF1037BD4680BD0801002099
:100DD0001400002080B483B000AF78607B6803F11A
:100DE00008027B685A607B684FF0FF329A607B682C
:100DF00003F108027B68DA607B6803F108027B6814
:100E00001A617B6800221A6000BF0C37BD4680BCA7
:100E1000704780B483B000AF78607B6800221A61AD
:100E200000BF0C37BD4680BC704780B485B000AFB2
:100E3000786039607B685B68FB60FB685A683B6878
:100E40005A607B685A683B689A60FB685B683A68DE
:100E50009A60FB683A685A607B683A685A603B68F7
:100E60007A681A617B681B685A1C7B681A6000BF2D
:100E70001437BD4680BC704780B485B000AF786041
:100E800039603B681B68BB60BB68B3F1FF3F03D1AF
:100E90007B681B69FB600CE07B680833FB6002E049
:100EA000FB685B68FB60FB685B681A68BB689A421A
:100EB000F6D9FB685A683B685A603B685B683A68D9
:100EC0009A603B68FA689A60FB683A685A603B68C7
:100ED0007A681A617B681B685A1C7B681A6000BFBD
:100EE0001437BD4680BC704780B485B000AF7860D1
:100EF0007B685B687A6892689A607B689B687A68AE
:100F000052685A607B681B69FB60FB685A687B68A3
:100F10009A4203D17B689A68FB685A607B6800221A
:100F20001A61FB681B685A1EFB681A6000BF143701
:100F3000BD4680BC704780B584B000AF7860396032
:100F40007B68002B4DD04C2000F062FBF860FB6802
:100F5000002B46D07B683A6802FB03F30133BB6089
:100F6000B86800F055FB0246FB681A60FB681B6816
:100F7000002B33D0FB681A687B68396801FB03F3E8
:100F80001A44FB685A60FB6800229A63FB681A687F
:100F9000FB689A60FB681A687B68013B396801FB53
:100FA00003F31A44FB68DA60FB687A68DA63FB686B
:100FB0003A681A64FB684FF0FF325A64FB684FF0DE
:100FC000FF329A64FB6810331846FFF703FFFB6893
:100FD00024331846FFF7FEFEFB6803E0F86800F0D4
:100FE000B9FB002318461037BD4680BD80B588B0D8
:100FF00000AFF860B9607A603B600023FB6100F0ED
:1010000093FAFB689A6BFB68DB6B9A4216D23A68DC
:10101000B968F86800F021F9FB685B6A002B09D019
:10102000FB6824331846FFF76DFC0346012B01D102
:1010300000F06EFA00F08AFA012356E07B68002B7C
:1010400003D100F083FA00234FE0FB69002B06D1A7
:1010500007F114031846FFF7ABFC0123FB6100F016
:1010600075FAFFF747FA00F05FFAFB685B6CB3F1C3
:10107000FF3F02D1FB6800225A64FB689B6CB3F10E
:10108000FF3F02D1FB6800229A6400F05FFA3A1D2C
:1010900007F1140311461846FFF7A0FC0346002B86
:1010A0001DD1F86800F0BBF90346002B11D0FB6896
:1010B00010337A6811461846FFF7D6FBF86800F03F
:1010C0004DF9FFF725FA0346002B98D100F020FADE
:1010D00095E7F86800F042F9FFF71AFA8FE7F86829
:1010E00000F03CF9FFF714FA002318462037BD46FC
:1010F00080BD80B588B000AFF860B9607A603B60B1
:101100000023FB6100F010FAFB689B6B002B3BD0C7
:10111000FB68DB68BB61B968F86800F0F9F83B6808
:10112000002B1CD1FB689B6B5A1EFB689A63FB6803
:101130001B68002B04D1FFF7AFFD0246FB685A6025
:10114000FB681B69002B1BD0FB6810331846FFF7A8
:10115000D9FB0346012B13D100F0DAF910E0FB684C
:10116000BA69DA60FB685B6A002B09D0FB6824333C
:101170001846FFF7C7FB0346002B01D000F0C8F963
:1011800000F0E4F9012364E07B68002B03D100F058
:10119000DDF900235DE0FB69002B06D107F11003A8
:1011A0001846FFF705FC0123FB6100F0CFF9FFF7BC
:1011B000A1F900F0B9F9FB685B6CB3F1FF3F02D114
:1011C000FB6800225A64FB689B6CB3F1FF3F02D1BD
:1011D000FB6800229A6400F0B9F93A1D07F1100388
:1011E00011461846FFF7FAFB0346002B2BD1F8688F
:1011F00000F000F90346002B1FD0FB681B68002B92
:1012000008D100F091F9FB685B681846FFF752FDC2
:1012100000F09CF9FB6824337A6811461846FFF702
:1012200023FBF86800F09AF8FFF772F90346002BE9
:101230007FF468AF00F06CF964E7F86800F08EF8AE
:10124000FFF766F95EE7F86800F088F8FFF760F9E5
:10125000002318462037BD4680BD80B584B000AF5E
:10126000F860B9607A60FB681B6C002B0CD1FB68DE
:101270001B68002B43D1FB685B681846FFF76CFDC9
:10128000FB6800225A603AE07B68002B19D1FB68AA
:101290009868FB681B6C1A46B96800F0FFFAFB6897
:1012A0009A68FB681B6C1A44FB689A60FB689A6832
:1012B000FB685B689A4222D3FB681A68FB689A60F5
:1012C0001DE0FB68D868FB681B6C1A46B96800F023
:1012D000E5FAFB68DA68FB681B6C5B421A44FB6842
:1012E000DA60FB68DA68FB681B689A4207D2FB6821
:1012F0005A68FB681B6C5B421A44FB68DA60FB6847
:101300009B6B5A1CFB689A6300BF1037BD4680BDBB
:1013100080B582B000AF786039607B681B68002BB5
:1013200018D07B68DA687B681B6C1A447B68DA60CB
:101330007B68DA687B685B689A4203D37B681A68CB
:101340007B68DA607B68D9687B681B6C1A463868F2
:1013500000F0A4FA00BF0837BD4680BD80B582B05A
:1013600000AF786000F0E0F812E07B685B6A002B69
:1013700013D07B6824331846FFF7C4FA0346002BCA
:1013800001D0FFF76FFB7B689B6C5A1E7B689A64E9
:101390007B689B6C002BE8DC00E000BF7B684FF0B3
:1013A000FF329A6400F0D2F800F0BEF812E07B68D9
:1013B0001B69002B13D07B6810331846FFF7A2FA85
:1013C0000346002B01D0FFF74DFB7B685B6C5A1E78
:1013D0007B685A647B685B6C002BE8DC00E000BF34
:1013E0007B684FF0FF325A6400F0B0F800BF083756
:1013F000BD4680BD80B584B000AF786000F094F841
:101400007B689B6B002B0CBF01230023DBB2FB60CE
:1014100000F09CF8FB6818461037BD4680BD80B5CB
:1014200084B000AF786000F07FF87B689A6B7B68CF
:10143000DB6B9A420CBF01230023DBB2FB6000F0A0
:1014400085F8FB6818461037BD4680BD80B485B06E
:1014500000AFF860B9607A60FB68043BFB60FB6832
:101460004FF080721A60FB68043BFB60BA68FB684F
:101470001A60FB68043BFB60FB6800221A60FB6893
:10148000143BFB607A68FB681A60FB68203BFB60DA
:10149000FB6818461437BD4680BC7047064B196878
:1014A0000868B0E8F00F80F309884FF0000080F37F
:1014B00011884EF00D0E70471000002000BF00BFD5
:1014C00004480068006880F3088862B600DF00BF47
:1014D00000BF000008ED00E080B500AF0A4A0A4BEB
:1014E0001B6843F47F031360074A074B1B6843F0F4
:1014F0007F43136000F07AF8044B00221A60FFF774
:10150000DFFF0023184680BD20ED00E0040000202E
:1015100080B400AF034B4FF080521A6000BFBD464D
:1015200080BC704704ED00E080B400AF4FF0BF0016
:1015300080F31188044B1B680133034A136000BF1A
:10154000BD4680BC704700BF0400002080B400AFDF
:10155000084B1B68013B074A1360064B1B68002BB6
:1015600003D14FF0000080F3118800BFBD4680BC5E
:10157000704700BF04000020EFF309800C4B1A688D
:1015800020E9F00F10602DE908404FF0BF0080F314
:101590001188FFF7ADF84FF0000080F31188BDE827
:1015A000084019680868B0E8F00F80F309887047B0
:1015B0001000002000BF00BF80B582B000AF0A4B12
:1015C0004FF080521A6000237B604FF0BF0080F321
:1015D0001188FFF71DF84FF0000080F3118800BF5D
:1015E0000837BD4680BD00BF04ED00E080B400AF09
:1015F000044B054A1A60054B07221A6000BFBD461E
:1016000080BC704714E000E03F19010010E000E0EA
:1016100080B58AB000AF78600023FB61FEF76AFFF7
:10162000474B1B68002B18D1464B474A1A60454B65
:1016300000225A60454B4FF420525A60434B00221F
:101640001A60414B7B617B694FF420525A607B6981
:101650003E4A1A603A4B01221A607B68002B0ED07A
:1016600010231A467B6813447B607B6803F00703F2
:10167000002B04D07B6823F0070308337B607B6872
:10168000002B56D07B68B3F5205F52D22D4B3B62C6
:101690002C4B1B687B6204E07B6A3B627B6A1B68A5
:1016A0007B627B6A5A687B689A4203D27B6A1B68BA
:1016B000002BF1D17B6A254A93423AD03B6A1B68E2
:1016C00010221344FB617B6A1A683B6A1A607B6ACA
:1016D0005A687B68D31A10225200934222D97A6A40
:1016E0007B6813443B617B6A5A687B68D21A3B690A
:1016F0005A607B6A7A685A603B695B68FB60114B91
:10170000BB6102E0BB691B68BB61BB691B685A68AF
:10171000FB689A42F6D3BB691A683B691A60BB69D9
:101720003A691A600A4B1A687B6A5B68D31A084ADE
:101730001360FEF7EDFEFB6918462837BD4680BDF5
:1017400048290020382900203801002040290020A5
:101750000800002080B586B000AF78607B683B61F0
:101760007B68002B27D010235B423A6913443B610E
:101770003B69FB60FEF7BEFEFB685B68BB60104B1D
:101780007B6102E07B691B687B617B691B685A682F
:10179000BB689A42F6D37B691A68FB681A607B695A
:1017A000FA681A60FB685A68064B1B681344054ABE
:1017B0001360FEF7ADFE00BF1837BD4680BD00BF09
:1017C000382900200800002080B584B000AF786080
:1017D000094B186807F10C0100234FF47A72FFF7E8
:1017E00088FC0346002BF3D0044A044BDB6883F0EB
:1017F0000103D360ECE700BF50290020000801403E
:1018000080B584B000AF78606420FEF7FBFD094A24
:10181000084BDB6883F02003D360FB680133FB6077
:10182000054B186807F10C010023C822FFF7DEFB07
:10183000EAE700BF0008014050290020032A70B4E5
:1018400022D940EA01039B0711D003780C78A34208
:101850001DD10A44013105E010F8013F11F8014B98
:10186000A34214D19142F7D1002070BC70470D689B
:1018700006680C46AE42034601F1040100F1040083
:1018800008D1043A032AF2D8002ADED1ECE7181B6B
:1018900070BC704721461846D7E700BF844641EA2E
:1018A000000313F0030349D1403A23D30B680360CC
:1018B0004B6843608B688360CB68C3600B690361CE
:1018C0004B6943618B698361CB69C3610B6A0362B6
:1018D0004B6A43628B6A8362CB6AC3620B6B03639E
:1018E0004B6B43638B6B8363CB6BC3634030403183
:1018F000403ADBD230320BD30B6803604B68436055
:101900008B688360CB68C36010301031103AF3D21B
:101910000C3205D351F8043B40F8043B043AF9D2A9
:10192000043208D0D2071CBF11F8013B00F8013B7C
:1019300001D30B8803806046704700BF082A13D389
:101940008B07B1D010F00303AED0C3F10403D21A59
:10195000DB071CBF11F8013B00F8013BA4D331F8B1
:10196000023B20F8023B9FE7043AD9D3013A11F831
:10197000013B00F8013BF9D20B7803704B784370C0
:101980008B7883706046704770B4860746D0541ECB
:10199000002A41D0CAB2034602E014F1FF343BD31F
:1019A00003F8012B9D07F8D1032C2ED9CDB245EABF
:1019B00005250F2C45EA054519D9264603F11002E5
:1019C000103E0F2E42F8105C42F80C5C42F8085CA6
:1019D00042F8045C02F11002F2D8A4F1100222F0E5
:1019E0000F0204F00F041032032C13440DD91E46CD
:1019F0002246043A032A46F8045BFAD8221F22F052
:101A000003020432134404F003042CB1C9B21C4491
:101A100003F8011B9C42FBD170BC7047144603467F
:101A2000C2E700BF40EA010313F0030F70B403469E
:101A300024D0A2B10C78013A1C70013101333CB1C1
:101A40006AB111F8014B013A03F8014B002CF7D1B0
:101A50002AB100211A4403F8011B9A42FBD170BC41
:101A600070470E4651F8045BA5F1013424EA0504E1
:101A700014F0803F05D1043A43F8045B032AF0D800
:101A8000D7E73146D6E700BF7461736B31000000C1
:101A900049444C45000000000D0A00002573090967
:101AA00025630925750925750925750D0A000000AE
:101AB000257309093009093025250D0A00000000A9
:101AC0002573090925750909257525250D0A0000C5
:101AD00025730909257509093C3125250D0A0000E2
:101AE000A5A5A5A5A5A5A5A5A5A5A5A5A5A5A5A5A6
:041AF000A5A5A5A55E
:0C1AF400FF000000AAAAAAAA0028000017
:0400000508000131BD
:00000001FF
